:0300000002004EAD
:200008000000E2FBEAF2802C0000E0FBEAF08024E6B50202EBF62200E2B50202EBF22200DE
:20002800E0B50202EBF02230F6E0A88220F5D3EAC6F582228B822230F6E6A88220F5D980EE
:01004800CFE8
:0300A7000200490B
:050049001200CB80FE57
:2000AA007E007F0090E678E0FD540560038D82220EBE00010FC3EE9430EF947540E68D8203
:2000CA00227F008F8275830474EEF00FBF100040F2900423E4F0900422F0900421F090049C
:2000EA0020F0900483F0900482F0900481F0900480F090E6787480F0A374A2F01200AAAFEA
:20010A0082900420EFF0EF30E104EF30E20990048074E1F00201A090E679E4F01200AAAF88
:20012A0082900421EFF0EF30E104EF30E20890048074E2F0806090E6787480F0A374A3F0DC
:20014A001200AAAF82900422EFF0EF30E104EF30E20890048074E3F0803C90E679E07F00A1
:20016A00BF0F0690E6787420F0C0071200AAAE82D0078F047D0490E679E08C828D83F00FA5
:20018A00BF100040DB900423EEF090048074C0F090048174DEF090E6787440F07E007F00B8
:2001AA0090E678E030E60E0EBE00010FC3EE9430EF947540EB90048274F1F09004837435A4
:0301CA00F080FEC4
:06007D00E4787FF6D8FDD7
:20005B007900E94400601B7A009001D1780075A005E493F2A308B8000205A0D9F4DAF27575
:02007B00A0FFE4
:200083007800E84400600A790075A005E4F309D8FC7800E84400600C7900900500E4F0A373
:0400A300D8FCD9FAB2
:0D004E007581071201CDE5826003020049B3
:0401CD007582002215
:00000001FF
