:0300000002004EAD
:200008000000E2FBEAF2802C0000E0FBEAF08024E6B50202EBF62200E2B50202EBF22200DE
:20002800E0B50202EBF02230F6E0A88220F5D3EAC6F582228B822230F6E6A88220F5D980EE
:01004800CFE8
:0300A7000200490B
:050049001201B680FE6B
:2000AA007E007F0090E678E0FD540560038D82220EBE00010FC3EE9430EF947540E68D8203
:2000CA002290E6787440F07E007F0090E678E030E60E0EBE00010FC3EE9430EF947540EBFF
:2000EA0022AF827D007E00ED2508F582EE3509F58374EEF00DBD00010E74FF2E50E990E6F8
:20010A00787480F0A3EFF0C0071200AAAE82D007EE30E104EE30E2071200CB7582012290DC
:20012A00E679E4F0C0071200AAAE82D007EE30E104EE30E2071200CB7582022290E6787494
:20014A0080F043070190E679EFF01200AAE582FF30E104EF30E2071200CB7582032290E65E
:20016A0079E07E007F00BEFF09BF000690E6787420F0C007C0061200AAAD82D006D007ED10
:20018A0030E2071200CB75820422EE2508FCEF3509FD90E679E08C828D83F00EBE00010F48
:2001AA0074FF2F50C11200CB758200227F008F82758306E4F00FBF080040F3750800750926
:2001CA00047582A21200EBAF82900600EFF07508007509057582A41200EBAF82900601EF86
:1B01EA00F090060274C0F090060374DEF090060474F1F09006057435F080FED2
:06007D00E4787FF6D8FDD7
:20005B007900E94400601B7A00900209780075A007E493F2A308B8000205A0D9F4DAF2753A
:02007B00A0FFE4
:200083007800E84400600A790075A007E4F309D8FC7800E84400600C7900900700E4F0A36F
:0400A300D8FCD9FAB2
:0D004E00758109120205E582600302004978
:0402050075820022DC
:00000001FF
