:0300000002004EAD
:200008000000E2FBEAF2802C0000E0FBEAF08024E6B50202EBF62200E2B50202EBF22200DE
:20002800E0B50202EBF02230F6E0A88220F5D3EAC6F582228B822230F6E6A88220F5D980EE
:01004800CFE8
:0300A7000200490B
:0500490012012D80FEF4
:2000AA00AF8290E6787480F0EF2FFE43060190E679EEF07D007E0090E678E0FC5405700E64
:2000CA000DBD00010EC3ED9430EE947540E98F82758304ECF0EC30E12AEC20E22690E67897
:2000EA007420F0A3E07E007F0090E678E05405700E0EBE00010FC3EE9430EF947540EA904A
:20010A00E679E090E6787440F07E007F0090E678E030E60E0EBE00010FC3EE9430EF9475CC
:20012A0040EB22900480E4F0900481F0900482F0900483F0FF8F8275830474EEF00FBF80C2
:20014A000040F27F008F82C0071200AAD0070FBF800040F190048074C0F090048174DEF06B
:0E016A0090048274F1F09004837435F080FEEE
:06007D00E4787FF6D8FDD7
:20005B007900E94400601B7A0090017C780075A005E493F2A308B8000205A0D9F4DAF275CA
:02007B00A0FFE4
:200083007800E84400600A790075A005E4F309D8FC7800E84400600C7900900500E4F0A373
:0400A300D8FCD9FAB2
:0D004E00758107120178E582600302004908
:04017800758200226A
:00000001FF
