:0300000002004EAD
:200008000000E2FBEAF2802C0000E0FBEAF08024E6B50202EBF62200E2B50202EBF22200DE
:20002800E0B50202EBF02230F6E0A88220F5D3EAC6F582228B822230F6E6A88220F5D980EE
:01004800CFE8
:0300A7000200490B
:050049001201E080FE41
:2000AA007E007F0090E678E0FD540560038D82220EBE00010FC3EE94A0EF940F40E68D82F9
:2000CA0022AF8290E6787480F0EF2FFE43060190E679EEF0C0071200AAAE82D007EE20E145
:2000EA00030201C0EE30E2030201C0900500E0FCA3E0FDC3EC9430ED940040030201B190FE
:20010A000500E0FCA3E0FDEC2CFCED33FDEC2CFCED33FD8C8274042DF583EFF0900500E093
:20012A00FDA3E0FFED2DFDEF33FFED2DFDEF33FF0DBD00010F8D8274042FF583EEF090054B
:20014A0000E0FEA3E0FFEE2EFEEF33FFEE2EFEEF33FF74022EFEE43F2404FF900504E0A3B7
:20016A00E0FBA3E0A3E08B028E828F83EAF0900500E0FEA3E0FFEE2EFEEF33FFEE2EFEEFD2
:20018A0033FF74032EFEE43F2404FF900504E08E828F83F0900500E0FEA3E0FF90050074AD
:2001AA00012EF0E43FA3F090E6787420F0A3E01200AA90E679E090E6787440F07E007F0051
:2001CA0090E678E030E60E0EBE00010FC3EE94A0EF940F40EB227F008F82758304E4F00F14
:2001EA00BFC00040F3900500E4F0A3F0900504F0A3F0A3F0A3F090048074C0F09004817444
:20020A00DEF090048274F1F09004837435F07582221200CB7582231200CB900504E0FCA3E6
:1D022A00E0FDA3E0FEA3E0FF90050474012CF0E43DA3F0E43EA3F0E43FA3F080D13D
:06007D00E4787FF6D8FDD7
:20005B007900E94400601B7A0090024B780075A006E493F2A308B8000205A0D9F4DAF275F9
:02007B00A0FFE4
:200083007800E84400600A790075A006E4F309D8FC7800E84400600C7900900600E4F0A371
:0400A300D8FCD9FAB2
:0D004E00758107120247E582600302004938
:04024700758200229A
:00000001FF
