:020000040000FA
:100000001EEF00F0FFFFFFFF04EF02F0FFFFFFFF16
:10001000FFFFFFFFFFFFFFFF80EF1EF0D4530DE057
:10002000140ED56FD55307E0A60E006E002EFED736
:100030000000D507F7D7D407F1D7000CF86AD09E97
:10004000EA6AE96AC180C182C184C196F2CFD4F064
:10005000F29EA96AA69CA69EA680A850D4BFF28E46
:10006000AA0802E100EF02F0D09EF26A1F0EF0161D
:100070009D6AA06A9486948882868288D0A202D0E3
:10008000D0B014D0380E956EC30E836E9588640E72
:10009000CB6FCB5308E0050ED46FC0DF81AA01D02F
:1000A00002D0CB07F6D7838E838C04D0300E956EAA
:1000B000CB0E836ED082D080460EC86EC78EC78CA2
:1000C000C69CC69E360EC66EC491C493C56BD36BD8
:1000D000D26BD16BD06B04009EB601D0FCD79E963C
:1000E000C7CFC6F0C6BB12D0C86BC96BC493C6B528
:1000F000C483C4A307D0C5C0C7F0C5C0C9FFC56BC2
:10010000C48103D0C9CFC7F0C69C68D0C4A317D0A0
:10011000C6B501D065D0CA51C95D04E3C8C0C7F0F7
:10012000C71F09D0036AC951200FE96E000E0320D2
:10013000EA6EEFCFC7F0C69EC7C0C9FF4ED0C9CF89
:10014000C7F0C69CC9530FE1CA6BC7C0CDF03F0EC4
:10015000CD17C7AF05D0CDC0CAF0020ECD6F02D00B
:10016000020ECD273AD0CD51C95D21E2010EC95D05
:10017000CE6FCE5303E1C7C0CFF018D0CE510308E5
:100180000BE3010ECE5D036AD00FE96E000E032073
:10019000EA6EC7C0EFFF0AD0040ECE5D036A200FDF
:1001A000E96E000E0320EA6EC7C0EFFF16D0C851FB
:1001B000FF0AC75D02E0C58510D0CFA303D0C951A7
:1001C00015080AE0CFA503D0C951050805E0CFA75F
:1001D00004D0C951020801E1C481C92BC751C82705
:1001E000C4A171D0C491C4A31CD0D2C0F8FFD1C0A7
:1001F000F7FFD0C0F6FF200EE16EE26A100ECB6F63
:10020000CB5308E009000000F550E66E0000000046
:10021000CB07F6D7F8CFD2F0F7CFD1F0F6CFD0F0AA
:1002200052D0D3530BE1D25309E1D151030806E375
:1002300003E1D051FE0802E3C58345D0CFA513D01A
:10024000D2C0F8FFD1C0F7FFD0C0F6FFA68EA69CA3
:10025000A684A688550EA76EAA0EA76EA682A6949F
:10026000A69ECF9530D0CFA329D0D2C0F8FFD1C061
:10027000F7FF010ED05DF66E200EE16EE26A020E0F
:10028000CC6FCC5319E0080ECB6FCB5309E0F62AA4
:10029000E65000000000F56E00000C00CB07F5D71B
:1002A000A68EA69CA684550EA76EAA0EA76EA68241
:1002B000A694A69ECC07E5D7CF9305D0CFA703D0B1
:1002C000C66A00EF02F0C4A308D0A60E006E002E8E
:1002D000FED70000C688C7B0FED7FDD60300FFFFDB
:1002E000FFFFFFFFFFFFFFFFFFFFFFFFFFFFFFFF1E
:1002F000FFFFFFFFFFFFFFFFFFFFFFFFFFFFFFFF0E
:10030000FFFFFFFFFFFFFFFFFFFFFFFFFFFFFFFFFD
:10031000FFFFFFFFFFFFFFFFFFFFFFFFFFFFFFFFED
:10032000FFFFFFFFFFFFFFFFFFFFFFFFFFFFFFFFDD
:10033000FFFFFFFFFFFFFFFFFFFFFFFFFFFFFFFFCD
:10034000FFFFFFFFFFFFFFFFFFFFFFFFFFFFFFFFBD
:10035000FFFFFFFFFFFFFFFFFFFFFFFFFFFFFFFFAD
:10036000FFFFFFFFFFFFFFFFFFFFFFFFFFFFFFFF9D
:10037000FFFFFFFFFFFFFFFFFFFFFFFFFFFFFFFF8D
:10038000FFFFFFFFFFFFFFFFFFFFFFFFFFFFFFFF7D
:10039000FFFFFFFFFFFFFFFFFFFFFFFFFFFFFFFF6D
:1003A000FFFFFFFFFFFFFFFFFFFFFFFFFFFFFFFF5D
:1003B000FFFFFFFFFFFFFFFFFFFFFFFFFFFFFFFF4D
:1003C000FFFFFFFFFFFFFFFFFFFFFFFFFFFFFFFF3D
:1003D000FFFFFFFFFFFFFFFFFFFFFFFFFFFFFFFF2D
:1003E000FFFFFFFFFFFFFFFFFFFFFFFFFFFFFFFF1D
:1003F000FFFFFFFFFFFFFFFFFFFFFFFFFFFFFFFF0D
:10040000E1EF15F0FFFFFFFF056ED8CF06F0E950D2
:10041000076EEA50086EE150096EE2500A6ED9503C
:100420000B6EDA500C6EF350146EF450156EE050F3
:100430000D6E000100500F6E0150106E0250116ED3
:100440000350126E0450136E9DA62AEF02F09EB662
:10045000A6EF02F0A0A030EF02F0A1B0C2EF03F0CF
:100460000F50006E1050016E1150026E1250036E4C
:100470001350046E0D50E06E0D8E0750E96E08505B
:10048000EA6E0950E16E0A50E26E0B50D96E0C50C4
:10049000DA6E1450F36E1550F46E055006C0D8FF96
:1004A0001000F2CF0EF0F29EF76ABC0FF66E040E4B
:1004B000F7220900F5500EBEF28E1200B9CC7FA8CB
:1004C000A55E5E00F2CF0EF0F29EF76ADE0FF66ECA
:1004D000040EF7220900F5500EBEF28E1200F2FF54
:1004E00086B8D3FFFFC0F2CF0EF0F29EF76A000F7E
:1004F000F66E050EF7220900F5500EBEF28E1200C0
:10050000CCD585B3AAEFEFA0F2CF0EF0F29EF76A3A
:10051000220FF66E050EF7220900F5500EBEF28E80
:10052000120097B4719994343400F2CF0EF0F29E19
:10053000F76A440FF66E050EF7220900F5500EBE5D
:10054000F28E120090A36B9690333300C7CF4DF11B
:10055000D45302E0CA8F01D0CA9FC6AC0CD0C69C4F
:10056000C9CF4CF1C69CC86BC96BD06BCF6BD59310
:10057000CA83C68804D101014D512D0B090A00011F
:1005800011E0280A1DE0080A1BE0250AD8B497D01C
:10059000200AD8B4BAD0080AD8B4B7D00C0AD8B454
:1005A000D8D0DED0D26BD60ED16FC86BC9CF4CF18C
:1005B0004CC1C9F0C69CCF6BC10ECA17D593DFD012
:1005C000C9CF4CF1C85319E1C82B4CC1CFF0010180
:1005D0004C510001C927D2C003F0D151D12BD8B45E
:1005E000D22BE96E03C0EAFF4CC1EFFFCFAF03D0BF
:1005F000CA87CF9F01D0CA9761D0C82D14D0C82B0D
:100600004CC1D0F001014C510001C927D2C003F008
:10061000D151D12BD8B4D22BE96E03C0EAFF4CC123
:10062000EFFFADD04BD0CAA703D0C851020804E0F9
:10063000020ECF25C85D28E1C82B01014C51FF0AED
:100640000001C95D05E0CA89CA85030ECE6F1AD0C4
:10065000CAB114D0CAA703D0D05107080EE0EA6A85
:100660002C0EE96EE26AD60EE16EC851016E04E00E
:10067000E6CFEEFF012EFCD7CA8104D0CA89CA8317
:10068000060ECE6F7CD01AD0C851150807E2C82BD1
:10069000CA89CA83060ECE6F72D010D001014C51A8
:1006A0000001C927D2C003F0D151D12BD8B4D22B2D
:1006B000E96E03C0EAFF4CC1EFFFC82B60D0D26BDC
:1006C000D60ED16FC86BD583CAA712D0CAA104D0E9
:1006D000CA8B080ECE6F0CD0EA6AD60EE96EE26ABB
:1006E000420EE16E160E016EE6CFEEFF012EFCD734
:1006F000CAC04CF14CC1C9FF4CC1C9F0CAB701D046
:10070000CF6BC90ECA17C6883AD0CF51C85D06E173
:10071000C9C04CF101014C1F14D00001CF51C85D7C
:100720000EE2D2C003F0D151D12BD8B4D22BE96E56
:1007300003C0EAFFEFCF4CF1010103D0000101013A
:100740004C6B4CC1C9FF4C510001C927C82BC6884E
:1007500016D0C86BC96BD06BCF6BD593C6880FD042
:10076000C6AC01D0C69CC6AE01D0C69E01014DA14B
:1007700002D04CC1C9FF0001D593C68800D09E9617
:1007800030EF02F0BCCF51F1BBCF50F1A19001018D
:1007900007A126D007A708D008510807000A03E1DF
:1007A000030E086F079718D02BAC02D02B9C14D0E7
:1007B000A1A009D05051BB5C0001FF6F0101515154
:1007C000BC58006F08D01051505D0001FF6F01014F
:1007D00011515159006F2B8EBCCF11F1BBCF10F1CD
:1007E000A190000130EF02F001013D51030809E240
:1007F000040E016EEA6A9F0EE96EEE6A012EFDD7C5
:100800003BD03E5108080BE1036A3D519F0FE96E52
:10081000000E0320EA6EEF50F00BEF6E2DD03E512C
:1008200009080BE1036A3D519F0FE96E000E03209A
:10083000EA6EEF500F0BEF6E1FD03E51090809E230
:10084000036A3D519F0FE96E000E0320EA6EEF6AC6
:1008500013D0036A3D519F0FE96E000E0320EA6E2C
:10086000010E006E3E51016E04E0D8900036012E5C
:10087000FCD70050FF0AEF160001000C010EEA6ED3
:100880003F0EE96EEF5012E00C0E016EBF0E006ECF
:100890000400002EFDD7012EF9D7BE0E006E002EEB
:1008A000FED7000000000400EF2EEED7000C01017F
:1008B0003E6B3E5163080CE30A0E3F6F0001DEDF22
:1008C00081AA03D0010104D0000101013E2BF1D720
:1008D0003E51630803E3010E016E02D0000E016E6B
:1008E0000001000C01013D510B0804E2000E016EF5
:1008F000026E68D00F0E3F173D17416B3DC140F1AE
:100900004039416F406BF00E41173E5140133F514B
:100910004113D8903D35036A140FE96E010E032090
:10092000EA6E3FC1ECFFED523EC1EFFF828E828046
:100930000400020E006E002EFED700008194040019
:10094000020E006E002EFED70000829E0400050EEF
:10095000006E002EFED700000000426B42510F08CF
:1009600023E30400020E006E002EFED7000041AF0C
:1009700002D0818801D08198D8904037413781A634
:1009800002D0408101D040910400020E006E002E82
:10099000FED7000081840400020E006E002EFED7F8
:1009A00000008194422BDAD70400050E006E002E61
:1009B000FED700000000828E0F0E411740C101F0EB
:1009C00041C102F00001000C016A026A006A036A78
:1009D00001014A5102E1495118E0100E4B6FD890C5
:1009E00047374837003603364A51035C02E1495124
:1009F000005C07E34951005ED8A003064A51035E3C
:100A0000D880013602364B2FEAD700000001000CD7
:100A100001013E51070801E2C9D0D8903E313F6F35
:100A20003E51010B000A02E1406B02D0040E406F00
:100A3000036A3F519F0FE96E000E0320EA6EEFCF6D
:100A400041F1036A3E51870FE96E000E0320EA6E02
:100A5000EFCF42F1036A3E51BB0FE96E000E032057
:100A6000EA6EEF50425D13E2036A3F519F0FE96E59
:100A7000000E0320EA6E010E006E4051016E04E08C
:100A8000D8900036012EFCD70050EF127CD0036ABC
:100A90003E51870FE96E000E0320EA6EEFCF42F160
:100AA000036A3E51B30FE96E000E0320EA6EEF5069
:100AB000425D16E2036A3F519F0FE96E000E03206C
:100AC000EA6E010E4025426F010E006E4251016E2A
:100AD00004E0D8900036012EFCD70050EF1253D01E
:100AE000036A3E51870FE96E000E0320EA6EEFCFD6
:100AF00042F1036A3E51A30FE96E000E0320EA6E35
:100B0000EF50425D17E016E3036A3F519F0FE96E15
:100B1000000E0320EA6E030E4025426F010E006EA8
:100B20004251016E04E0D8900036012EFCD70050EF
:100B3000EF1229D0036A3E51870FE96E000E0320A1
:100B4000EA6EEFCF42F1036A3E51AB0FE96E000E41
:100B50000320EA6EEF50425D16E015E3036A3F5151
:100B60009F0FE96E000E0320EA6E020E4025426FD1
:100B7000010E006E4251016E04E0D8900036012E45
:100B8000FCD70050EF12036A3F519F0FE96E000E31
:100B90000320EA6E4151EF5C09E0036A3F519F0F69
:100BA000E96E000E0320EA6E41C1EFFF0001000C68
:100BB00001013E510001D413D45302E0949A829A69
:100BC000000C44C148F143C147F101014A6B170EC3
:100BD000496F0001F9DE490E01010124456F000E45
:100BE0000220466F4651030804E2030E466FFF0ED3
:100BF000456F465306E14551310803E3466B320E1B
:100C0000456F45C101F046C102F00001000C010131
:100C10003E6B3F6B4291F2BE428107892B9E660E6E
:100C2000446FDD0E436F0001CCDF02C041F101C013
:100C300040F141C102F040C101F002320132023202
:100C40000132023201C0BEFF02320230300B006EB0
:100C5000BD50CF0B0010BD6E839001010787078147
:100C60002B8CA190A080C00EF2122BBE09D03E2B7F
:100C7000D8B43F2B04003E513F1101E101D0F5D71C
:100C800007918380A09042B104D0F29CF29EF2BE04
:100C9000FDD72BBE04D0000E016E05D004D02B9ED4
:100CA000010E016E00D00001DCEF09F001013E6B86
:100CB000828E82800400020E006E002EFED700009D
:100CC00081940400020E006E002EFED70000829E6A
:100CD0000400050E006E002EFED7000000003F6BE2
:100CE0003F510F081BE30400020E006E002EFED7DA
:100CF00000003FA102D0818801D081980400020E3B
:100D0000FFFFFFFFFFFFFFFFFFFFFFFFFFFFFFFFF3
:100D1000FFFFFFFFFFFFFFFFFFFFFFFFFFFFFFFFE3
:100D2000FFFFFFFFFFFFFFFFFFFFFFFFFFFFFFFFD3
:100D3000FFFFFFFFFFFFFFFFFFFFFFFFFFFFFFFFC3
:100D40003E2B0400020E006E002EFED700008184B0
:100D50000400020E006E002EFED7000081943F2B8F
:100D6000DED70400050E006E002EFED70000000046
:100D7000828E3EC101F0000109EF0AF0070E010169
:100D80004417010E4617486B44C147F14739486F75
:100D9000476BF00E48174551471346514813828E52
:100DA00082800400020E006E002EFED700008194A7
:100DB0000400020E006E002EFED700008290040098
:100DC000050E006E002EFED700000000496B495151
:100DD0000F0818E348AF02D0818801D08198D890DD
:100DE0004737483781840400020E006E002EFED77C
:100DF000000081940400020E006E002EFED7000059
:100E0000492BE5D70400050E006E002EFED700002A
:100E1000000082800001000C070E01014417466BA0
:100E200044C145F14539466F456BF00E4617468F74
:100E3000828E82800400020E006E002EFED700001B
:100E400081940400020E006E002EFED700008290F6
:100E50000400050E006E002EFED700000000476B58
:100E6000475103081EE346AF02D0818801D0819824
:100E7000D890453746370400020E006E002EFED78C
:100E8000000081840400020E006E002EFED70000D8
:100E900081940400020E006E002EFED70000472B46
:100EA000DFD7466B456B476B47510B0819E3D8906A
:100EB0004537463781840400050E006E002EFED7AC
:100EC0000000000081A602D0458101D045910400B8
:100ED000020E006E002EFED700008194472BE4D74F
:100EE0000400050E006E002EFED700000000828078
:100EF000010E461745C101F046C102F00001000C89
:100F000001014391010E3F6F670E3E6F426B4251EC
:100F1000010827E3050E446F3FC146F13EC145F18C
:100F200000012CDF050E0101446F000175DF02C0D6
:100F300041F101C040F101013EC144F13F51010BBB
:100F4000456F40C100F04151010B036E40513E5DC1
:100F500003E10350455D01E043813F6B3E6B422B53
:100F6000D6D7000E43B1010E016E000110EF0AF05A
:100F7000A6B2FED7F2CF43F1F29E40C1A9FFA69CD4
:100F8000A69EA680A850010143BFF28E415D1DE0E0
:100F9000A198A09840C1A9FF41C1A8FFA69EA69C08
:100FA000A6844291F2BE4281F29CF29EF2BEFDD72F
:100FB000550EA76EAA0EA76EA68242A102D0C00E41
:100FC000F212A1A8FED7A198A6940001000C04007B
:100FD000296A286A01013D6B3D510708D8A0C6D196
:100FE0003D35006E00360036F80E0016C250C70BB5
:100FF0000010C26E0400200E006E002EFED7036AA1
:101000003D517F0FE96E000E0320EA6EC284C2B428
:10101000FED7C4CFEFFF036A3D517F0FE96E000E8C
:101020000320EA6EEFCF3EF1036A3D518F0FE96E68
:10103000000E0320EA6EEF503E5D18E2036A3D5158
:101040008F0F016E000E032203C03FF1036A3D5172
:101050007F0FE96E000E0320EA6EEFCF40F13FC133
:10106000EAFF01C0E9FF40C1EFFF2BD0036A3D5109
:101070007F0FE96E000E0320EA6EEFCF3EF1036AA8
:101080003D51970FE96E000E0320EA6EEF503E5D72
:1010900018E017E3036A3D51970F016E000E03221B
:1010A00003C03FF1036A3D517F0FE96E000E03203C
:1010B000EA6EEFCF40F13FC1EAFF01C0E9FF40C156
:1010C000EFFF0400200E006E002EFED7036A3D5194
:1010D000770FE96E000E0320EA6EC284C2B4FED719
:1010E000C4CFEFFF036A3D51770FE96E000E032076
:1010F000EA6EEFCF3EF1036A3D518F0FE96E000EAD
:101100000320EA6EEF503E5D18E2036A3D518F0FF7
:10111000016E000E032203C03FF1036A3D51770FB9
:10112000E96E000E0320EA6EEFCF40F13FC1EAFF07
:1011300001C0E9FF40C1EFFF2BD0036A3D51770F9B
:10114000E96E000E0320EA6EEFCF3EF1036A3D51D7
:10115000970FE96E000E0320EA6EEF503E5D18E037
:1011600017E3036A3D51970F016E000E032203C07F
:101170003FF1036A3D51770FE96E000E0320EA6EDE
:10118000EFCF40F13FC1EAFF01C0E9FF40C1EFFFEF
:101190000400200E006E002EFED7036A3D516F0F33
:1011A000E96E000E0320EA6EC284C2B4FED7C4CF3B
:1011B000EFFF036A3D516F0FE96E000E0320EA6EE8
:1011C000EFCF3EF1036A3D518F0FE96E000E032011
:1011D000EA6EEF503E5D18E2036A3D518F0F016EDB
:1011E000000E032203C03FF1036A3D516F0FE96E09
:1011F000000E0320EA6EEFCF40F13FC1EAFF01C0CD
:10120000E9FF40C1EFFF2BD0036A3D516F0FE96E3C
:10121000000E0320EA6EEFCF3EF1036A3D51970FB7
:10122000E96E000E0320EA6EEF503E5D18E017E312
:10123000036A3D51970F016E000E032203C03FF178
:10124000036A3D516F0FE96E000E0320EA6EEFCF87
:1012500040F13FC1EAFF01C0E9FF40C1EFFF036A6F
:101260003D51870F016E000E032201C03EF103C005
:101270003FF1036A3D517F0FE96E000E0320EA6ED5
:10128000EF50416B406F036A3D51770FE96E000EDE
:101290000320EA6EEF504025426F000E4121436F5C
:1012A000036A3D516F0FE96E000E0320EA6EEF50A6
:1012B0004225446F000E4321456F45C148F144C1AA
:1012C00047F14A6B030E496F0001E4EC04F00101A1
:1012D0003FC1EAFF3EC1E9FF01C0EFFF3DC13EF162
:1012E000000108EC05F001013D51F80F3DE2080F47
:1012F000000149EF0AF09F510F0B000A01E028821C
:10130000010132D09F51F00B000A01E02886010153
:101310002BD0A0510F0B000A01E0288A010124D034
:10132000A051F00B000A01E0288C01011DD0A15151
:101330000F0B000A01E02984010116D0A151F00B26
:10134000000A01E0298601010FD0A2510F0B000A0B
:1013500001E02988010108D0A251F00B000A01E048
:101360002880010101D001013D2B36D66E34006E7C
:1013700000360036F80E0016C250C70B0010C26EC1
:10138000CE50CFCF03F00001C36F03C0C4F02B9445
:1013900028507E0B006E2950000B036E0050031086
:1013A00008E027822A82020E01013E6F000100DC64
:1013B00002D027922A922BD401520AE1278028805A
:1013C0002A80010E01013E6F0001D8EC05F002D029
:1013D00027902A9057EC04F001520AE1278A2982CB
:1013E0002A86200E01013E6F0001D8EC05F002D0E4
:1013F000279A2A9681B20AD0278429802A84040E4B
:1014000001013E6F0001D8EC05F002D027942A9428
:101410004DD40150100802E0278601D0279670D5E0
:10142000015202E0278801D0279827B602D027A8CA
:1014300009D0288E2A84080E01013E6F0001D8ECE5
:1014400005F001D02A9428C03EF101012950000B7B
:101450003F6F030E406F28C041F1000189DD29C0B4
:101460003EF101013F6B040E406F29C041F10001C4
:101470007FDD050E0101406F2AC041F1000178DDDA
:10148000060E0101406F27C041F1000171DD04002B
:10149000000CF2CF0EF0F29EE824B70FF66E140E99
:1014A000F76ED8B0F72A0A00F550FA6E0800F5502A
:1014B0000EBEF28EF96EF6120413121320132E13C1
:1014C0003C134A13581301013D6B3F6B600E3E6F96
:1014D000000172EC04F0040E01013D6F3F6B200E21
:1014E0003E6F000172EC04F0050E01013D6F070E26
:1014F0003F6FF00E3E6F000172EC04F0060E01012A
:101500003D6F080E3F6F660E3E6F000172EC04F0F7
:101510000B0E01013D6F3F6B3E6B000172EC04F05E
:1015200004000101446B466B780E456F000126DC18
:10153000010E0101446F466B800E456F00011EDCF9
:10154000020E0101446F466B456B000117DC030E70
:101550000101446F466B456B000110DC040E010174
:10156000446F466B456B000109DC050E0101446FB9
:10157000466B456B000102DC060E0101446F466BB1
:10158000456B0001BEEC06F0070E0101446F466B8F
:10159000456B0001BEEC06F00400000C01013F9118
:1015A000F2BE3F81F29CF29EF2BEFDD7F2CF40F137
:1015B000F29E3DC1A9FFA69CA69EA680A85040BF52
:1015C000F28E3E6F3FA102D0C00EF2123EC101F07A
:1015D0000001000C010107918380A0900997000190
:1015E000000C0101026B016B2B9E0001000CF2DF6D
:1015F00001010789078BBE6A660E046FDD0E036F5B
:101600000795086B0001EDDF00EF0DF0006A016A3D
:10161000026A036A01013F6B406B416B426B3E51B2
:101620003D113C113B112CE0200E436FD890373711
:10163000383739373A373F374037413742373E51ED
:10164000425D08E13D51415D05E13C51405D02E1F3
:101650003B513F5D0FE33B513F5F3C51D8A03C3DC8
:10166000405F3D51D8A03D3D415F3E51D8A03E3D39
:10167000425FD8800036013602360336432FD6D774
:101680000000010EEA6E3F0EE96E0001000C010140
:101690003A6B090E396F270E386FC00E376F3E6BED
:1016A0003D6B36C13CF135C13BF10001AFDF010EAE
:1016B0000024EF6F000E0120F06F01013A6B030E62
:1016C000396F0D0E386F400E376F3E6B3D6B36C174
:1016D0003CF135C13BF1000199DF010E0024F16FAF
:1016E000000E0120F26F01013A6B060E396F1A0EDF
:1016F000386F800E376F3E6B3D6B36C13CF135C1A4
:101700003BF1000183DF010E0024F36F000E012086
:10171000F46F01013A6B2D0E396FC60E386FC00E93
:10172000376F3E6B3D6B36C13CF135C13BF100017B
:101730006DDF010E0024ED6F000E0120EE6FEC6BEB
:1017400004000BEF0DF0D0A202D0D0B005D0380EBF
:10175000956E030E836E04D0300E956ECB0E836EA5
:10176000958695842F0E926E100E806EF18EEB0E84
:10177000936E816A3A0E946E810E826E9680968286
:101780009684846A8088C190C192C194C1966E6A21
:10179000C19CC28CC28EC19EC2806E34006E003667
:1017A0000036F80E0016C250C70B0010C26E850E30
:1017B000CD6ECE50CFCF03F0C36F03C0C4F02B94D7
:1017C000D56AB70EB1168B940C0EBD6E000E016E6D
:1017D0000509CA6E870ECB6EB70EB116BA6A050E32
:1017E000BA6E01010793346B3451070853E3036A5F
:1017F00034517F0FE96E000E0320EA6E036A345104
:10180000000151EC02F0016E01C0EFFF036A01011B
:101810003451770FE96E000E0320EA6E036A3451EB
:10182000000151EC02F0016E01C0EFFF036A0101FB
:1018300034516F0FE96E000E0320EA6E036A3451D3
:10184000000151EC02F0016E01C0EFFF036A0101DB
:101850003451870FE96E000E0320EA6E036A34519B
:10186000000151EC02F0016E01C0EFFF036A0101BB
:1018700034518F0FE96E000E0320EA6EFF0EEF6EFB
:10188000036A3451970FE96E000E0320EA6EEF6A87
:10189000342BAAD7EA6AA30EE96EF2CF35F1F29E95
:1018A000080E016EF76A000E000162EC02F00A00F9
:1018B0000900F5CFEEFF012EFBD7010135BFF28EF7
:1018C000EA6AAB0EE96EF2CF35F1F29E080E016EB8
:1018D000F76A000E000173EC02F00A000900F5CF70
:1018E000EEFF012EFBD7010135BFF28EEA6AB30E7F
:1018F000E96EF2CF35F1F29E080E016EF76A000E26
:10190000000184EC02F00A000900F5CFEEFF012E81
:10191000FBD7010135BFF28EEA6ABB0EE96EF2CF4A
:1019200035F1F29E080E016EF76A000E000195EC8B
:1019300002F00A000900F5CFEEFF012EFBD70101EE
:1019400035BFF28E040E3D6F080E3E6F0001F4ECC1
:1019500003F02B822B80D0A202D0D0B01DD057EC48
:1019600004F0838E838C2B96C66B100EC56F2B886C
:10197000C58B090E01013D6FC6C03FF1C5C03EF1E8
:10198000000172EC04F02B8A840EC76F276A2A6A62
:10199000E7EC07F098DD33D02B862B9A020E01017D
:1019A0003D6F0001FBDD015205E0276A2A6AE7EC82
:1019B00007F025D0040E01013D6F0001EFDD0101AC
:1019C000366B01C035F101C038F1376B030E3D6F46
:1019D0000001E4DD036A015001013711286E035054
:1019E0003811296E050E3D6F0001D8DD01C02AF0C7
:1019F000060E01013D6F0001D1DD01C027F0F7D5D2
:101A0000B150480BB509B16ED00E0101366F550EBD
:101A1000356F00013CD614EF16F034C117F035C114
:101A200018F036C119F037C11AF038C11BF0EA6A54
:101A30001C0EE96E3AC1E2FF39C1E1FFE752E6CF81
:101A4000EEFFFCE13BC122F025EF16F034C123F09C
:101A500035C124F036C125F037C126F031EF16F03C
:101A6000C86BCA6BC96BD26BD60ED16FD06BCF6B04
:101A7000CE6BCD6BD593160E016EEA6AD60EE96E6B
:101A8000EE6A012EFDD7D46B948A000C360EC66E1A
:101A900034C1C8FFC78CD591E3DF37EF16F03DC1E5
:101AA000CDF0CD5302E1CA9B01D0CA8B000CF29C51
:101AB000F29EF2BEFDD7D4DFFF0073EF11F0F29C6F
:101AC000F29EF2BEFDD7CCDF00EF00F073EF11F015
:101AD000D4C042F0CDC043F0CEC044F03DC145F08B
:101AE00073EF11F001013D51FF0A0001D417D453E7
:101AF00001E1948A17EF0FF001013E517E0809E2DF
:101B0000FF0A03E13D51FE0804E27F0E3E6FFE0E28
:101B10003D6F3E513F080DE2FF0A03E13D5174085D
:101B200008E20783B70EB1169482BA6A060EBA6E3F
:101B300007D00793B70EB1169482BA6A050EBA6E33
:101B40003EC104F13DC103F10001000C01013D5112
:101B50000B0804E2000E016E026E0ED0D8903D35E7
:101B6000036A140FE96E010E0320EA6EEFCF01F055
:101B7000E92AEF50E906026E0001000C959883985F
:101B8000010E01013F6F00013EEC04F0958873EFF8
:101B900011F0CAA184EF11F001013D6B00017FDF5C
:101BA0002C503F0B0101376F3751160802E2160E19
:101BB000376F2D50070A0001D8B497D00F0AD8B458
:101BC00095D0060AD8B499D01E0AD8B49BD0190A69
:101BD000D8B4ABD0090AD8B4B5D0030AD8B4C2D0AF
:101BE000020AD8B4E1D00C0AD8B4E0D00F0AD8B4B5
:101BF000DFD0E80AD8B4DFD0E00AD8B4E4D0010AD4
:101C0000D8B4FCD00D0AD8B404D1170AD8B412D174
:101C1000980AD8B435D1290AD8B435D1010AD8B434
:101C200037D1510AD8B439D1520AD8B440D1070AB1
:101C3000D8B440D1030AD8B44ED1290AD8B456D169
:101C4000600AD8B456D16D0AD8B463D1010AD8B4A9
:101C50007ED1070AD8B489D1010AD8B49AD1050A2D
:101C6000D8B4A6D1010AD8B4B6D1070AD8B4C6D11F
:101C7000210AD8B4C6D1130AD8B4C4D1230AD8B41F
:101C8000C6D10F0AD8B4C9D1010AD8B412D2030AF6
:101C9000D8B42AD2300AD8B439D2010AD8B438D24A
:101CA000070AD8B437D21B0AD8B43DD2070AD8B431
:101CB00040D2010AD8B44AD2030AD8B460D20A0A80
:101CC000D8B476D2010AD8B48CD2170AD8B4A2D22A
:101CD0001B0AD8B4B9D2030AD8B4D0D2190AD8B4DE
:101CE000E7D21C0AD8B4F1D2F7D2FDD2E7EC07F064
:101CF00028C042F029C043F0F6D228C042F029C0E3
:101D000043F0F1D22E5209E0020E0101406F010EA4
:101D1000416F0001B8EC07F007D0020E0101406FDF
:101D2000416B0001B8EC07F0DED2EA6A420EE96EC0
:101D3000E26A580EE16E160E016EE6CFEEFF012E3E
:101D4000FCD7D1D2EA6A420EE96EE26A2E0EE16E4B
:101D500001013751016E04E0E6CFEEFF012EFCD702
:101D60000001C1D22E50010A03E0030A0EE01AD08E
:101D7000EA6A420EE96EE26A170EE16E0C0E016E1F
:101D8000E6CFEEFF012EFCD70ED0EA6A420EE96ED6
:101D9000E26A230EE16E040E016EE6CFEEFF012E25
:101DA000FCD701D000D09FD2808881D6808887D68A
:101DB00027C03DF18DD601013A6B09C139F139C116
:101DC00042F0000190D22EC03BF12FC03CF13BC14C
:101DD000A9FF3CC1A8FFA69CA69EA684F2CF00F056
:101DE000F29E0F01550EA76EAA0EA76EA682A6B28E
:101DF000FED7A6940050F212000175D22EC03BF11E
:101E00003BC13DF1CEEC0AF001C03CF13CC142F0D7
:101E10006AD2F29CF29EF2BEFDD72E5205E02FC090
:101E20003EF1D8EC05F003D02FC03DF15BD6C00EDB
:101E3000F21259D22E34006E00360036F80E00161B
:101E4000C250C70B0010C26E0400200E006E002EA0
:101E5000FED7C284C2B4FED7C4CF42F06E34006E47
:101E600000360036F80E0016C250C70B0010C26EC6
:101E7000CE50CFCF03F0C36F03C0C4F02B9433D246
:101E800027C042F030D201010789078500012BD21B
:101E9000010107990785000126D22EA003D0010178
:101EA000079902D001010789078500011CD2EAECDD
:101EB0000AF019D201013E6B3F6B036A2E503F11AD
:101EC000396F03502F103A6F3AC13EF139C13DF1DD
:101ED000000112DE08D204C13AF103C139F1010157
:101EE00039C142F03AC143F00001FDD1EAEC0AF0F9
:101EF000FAD12B9E0101386B060E3F6F00013EECBC
:101F000004F02BAE03D001013881000138C142F04A
:101F1000EAD101013E6B3F6B036A2F503F11396FCD
:101F2000035030103A6F2E50090807E12BA801D05A
:101F3000398B3AC1C6F039C1C5F02EC03DF13AC166
:101F40003FF139C13EF1000172EC04F0CCD12EC05A
:101F50003DF1FCDD02C03AF101C039F1010139C1A6
:101F600042F03AC143F00001BED101013E6B3F6B2C
:101F7000036A2F503F11396F035030103A6F2EC053
:101F800044F13AC146F139C145F10001BEEC06F019
:101F9000AAD12EC044F10CEC07F002C03AF101C006
:101FA00039F1010139C142F03AC143F000019BD13E
:101FB00001013D6B0001CADD02C03AF101C039F1F7
:101FC000010139813D6B3AC13FF139C13EF1000158
:101FD00072EC04F088D101013D6B0001B7DD02C055
:101FE0003AF101C039F1010139913D6B3AC13FF13C
:101FF00039C13EF1000172EC04F075D163EC0AF0D6
:1020000072D1BCD557EC04F001C042F06CD12E5215
:1020100002E02B8601D02B9666D12BB601D063D17E
:102020002E50C00B000A05E0400A18E0C00A2BE061
:1020300035D02EA002D0C59501D0C5852EA202D0E4
:10204000C59701D0C5872EA402D0C68101D0C69104
:102050002EA602D0C68301D0C69320D02EA002D0D7
:10206000C59101D0C5812EA202D0C59301D0C583F0
:102070002EA402D0C58D01D0C59D2EA602D0C58F3D
:1020800001D0C59F0BD02EA002D0C59901D0C58923
:102090002EA402D0C68501D0C69500D0090E01013C
:1020A0003D6FC6C03FF1C5C03EF1000172EC04F0C7
:1020B0001AD101013E6B3F6B036A2E503F110001A4
:1020C000C56F035001012F100001C66F2BA801D06E
:1020D000C58B090E01013D6FC6C03FF1C5C03EF181
:1020E000000172EC04F0FFD02E5203E02B88C58B68
:1020F00002D02B98C59B090E01013D6FC6C03FF170
:10210000C5C03EF1000172EC04F0EDD0839CEBD031
:10211000838CE9D0839E050E01013F6F00013EECE8
:1021200004F0838EE0D02E5202E02B8201D02B925D
:10213000DAD0EA6A420EE96EE26A870EE16E080EB4
:10214000016EE6CFEEFF012EFCD7CDD0EA6AAB0ED2
:10215000E96EE26A2E0EE16E080E016EE6CFEEFF2A
:10216000012EFCD7EA6AB30EE96EE26A360EE16E22
:10217000080E016EE6CFEEFF012EFCD7B4D0EA6A5E
:10218000A30EE96EE26A2E0EE16E080E016EE6CF36
:10219000EEFF012EFCD7EA6ABB0EE96EE26A360E4C
:1021A000E16E080E016EE6CFEEFF012EFCD79BD04C
:1021B000EA6A420EE96EE26AAB0EE16E080E016E4B
:1021C000E6CFEEFF012EFCD7EA6A4A0EE96EE26A1C
:1021D000B30EE16E080E016EE6CFEEFF012EFCD7C6
:1021E00082D0EA6A420EE96EE26AA30EE16E080E40
:1021F000016EE6CFEEFF012EFCD7EA6A4A0EE96EC9
:10220000E26ABB0EE16E080E016EE6CFEEFF012E14
:10221000FCD769D02E5007080DE2EA6A420EE96E3B
:10222000E26A870EE16E080E016EE6CFEEFF012E28
:10223000FCD709D0036A2E50870FE96E000E0320E9
:10224000EA6EEFCF42F04FD02E5007080DE2EA6A57
:10225000420EE96EE26A8F0EE16E080E016EE6CF65
:10226000EEFF012EFCD709D0036A2E508F0FE96EC6
:10227000000E0320EA6EEFCF42F035D02E50070853
:102280000DE2EA6A420EE96EE26A970EE16E080E0E
:10229000016EE6CFEEFF012EFCD709D0036A2E5067
:1022A000970FE96E000E0320EA6EEFCF42F01BD0CD
:1022B000EA6A420EE96EE26A9F0EE16E040E016E5A
:1022C000E6CFEEFF012EFCD70ED02EC03DF12FC081
:1022D0003EF1F4EC03F007D0010E01013D6F000167
:1022E0004FEC0DF000D02D5009080CE0EA6A580EB2
:1022F000E96EE26A2C0EE16E160E016EE6CFEEFF7D
:10230000012EFCD7CA910400000C0101415145196E
:10231000800B4B6F41AF0BD03E1F3F1F401F411F33
:102320003E2BD8B43F2BD8B4402BD8B4412B45AF6B
:102330000BD0421F431F441F451F422BD8B4432BD1
:10234000D8B4442BD8B4452B006A016A026A036AE8
:10235000466B476B486B496B455144114311421121
:102360002CE0200E4A6FD8903E373F374037413738
:1023700046374737483749374551495D08E14451A9
:10238000485D05E14351475D02E14251465D0FE37F
:102390004251465F4351D8A0433D475F4451D8A0C6
:1023A000443D485F4551D8A0453D495FD88000363F
:1023B0000136023603364A2FD6D700004BAF0BD07A
:1023C000001E011E021E031E002AD8B4012AD8B422
:1023D000022AD8B4032A010EEA6E460EE96E000105
:1023E000000C010141514319800B456F41AF05D0ED
:1023F000401F411F402BD8B4412B43AF05D0421F93
:10240000431F422BD8B4432B016A026A006A036A55
:10241000435102E1425118E0100E446FD89040370A
:102420004137003603364351035C02E14251005C00
:1024300007E34251005ED8A003064351035ED880F3
:1024400001360236442FEAD7000045AF05D0011E01
:10245000021E012AD8B4022A0001000CA09001013A
:1024600007A32AD0FFC000F000C101F0026A036A8E
:1024700000AF02D00206030603C03DF102C03CF1EA
:1024800001C03BF100C03AF1030E416FCE0E406F28
:10249000610E3F6FDE0E3E6F03C045F102C044F196
:1024A00001C043F100C042F100012FDF01C039F14A
:1024B00000C038F128D00101FFC000F000C101F0D8
:1024C000026A036A00AF02D00206030603C03DF1B0
:1024D00002C03CF101C03BF100C03AF1416BF30E88
:1024E000406F980E3F6F780E3E6F03C045F102C0FB
:1024F00044F101C043F100C042F1000106DF01C018
:1025000039F100C038F101013851035D346F3951A0
:102510000459356F345101273551022302BF0CD0C5
:102520000251640809E2FF0A03E10151900804E244
:10253000650E026F900E016F02AF0BD002519A0828
:1025400008E303E101516F0804E39A0E026F700E75
:10255000016F07A337D035C141F134C140F1436B5E
:10256000040E426F00013DDF02C03BF101C03AF1B1
:1025700002C141F101C140F10101436B200E426FE4
:1025800000012FDF02C003F0015001013A253C6F2A
:1025900002503B213D6F1251345D3E6F135135594E
:1025A0003F6F3FC141F13EC140F1436B040E426FAA
:1025B000000117DF015001013C25366F02503D211B
:1025C000376F36D035C141F134C140F1436B050E50
:1025D000426F000106DF02C03BF101C03AF102C1C7
:1025E00041F101C140F10101436B200E426F000136
:1025F000F8DE02C003F0015001013A253C6F0250A1
:102600003B213D6F1251345D3E6F135135593F6F81
:102610003FC141F13EC140F1436B030E426F0001E7
:10262000E0DE015001013C25366F02503D21376F3D
:1026300035C113F134C112F137BF07D03751030848
:1026400004E2030E376FFF0E366F37BF05D03753E6
:1026500006E13651310803E3376B320E366F37C16E
:1026600002F036C101F0023201320232013202328E
:1026700001C0BEFF02320230300B006EBD50CF0BE6
:102680000010BD6E2B8CA190A0802B9E0001000C31
:102690002BAE05D0E3DE0101066B056B70D00101A6
:1026A00007A16DD0052BD8B4062B0651120867E29E
:1026B000FF0A03E10551870862E207A32AD003C19C
:1026C00000F004C101F0026A036A04AF02D00206FE
:1026D000030603C037F102C036F101C035F100C076
:1026E00034F1070E416F9C0E406FC30E3F6FBC0E5E
:1026F0003E6F03C045F102C044F101C043F100C088
:1027000042F1000102DE01C000F100C0FFF029D05B
:10271000010103C100F004C101F0026A036A04AFC1
:1027200002D00206030603C037F102C036F101C031
:1027300035F100C034F1010E416FE70E406F300EED
:102740003F6FF00E3E6F03C045F102C044F101C07F
:1027500043F100C042F10001D8DD01C000F100C02A
:10276000FFF00101066B056B000178DE27802A80EF
:10277000010E01013E6F0001D8EC05F001010001DE
:102780004BEF16F02BA4EFD0C2B4ECD0036A6E501E
:102790007F0F016E000E0322010103C038F1036AAE
:1027A0006E50770FE96E000E0320EA6EEFCF39F11D
:1027B00038C1EAFF01C0E9FF39C1EFFF036A6E507B
:1027C000770F016E000E032203C038F1036A6E50CA
:1027D0006F0FE96E000E0320EA6EEFCF39F138C1BA
:1027E000EAFF01C0E9FF39C1EFFF036A6E506F0FC6
:1027F000E96E000E0320EA6EC4CFEFFF6EC036F123
:102800006E2A6E50070801E26E6A6E34006E003662
:102810000036F80E0016C250C70B0010C26ECE5024
:10282000CFCF03F00001C36F03C0C4F02B94036A41
:1028300001013651870F016E000E032201C037F1EE
:1028400003C038F1036A36517F0FE96E000E032092
:10285000EA6EEF503A6B396F036A3651770FE96EC3
:10286000000E0320EA6EEF5039253B6F000E3A212F
:102870003C6F036A36516F0FE96E000E0320EA6E5B
:10288000EF503B253D6F000E3C213E6F3EC148F1AD
:102890003DC147F14A6B030E496F0001E4EC04F0BF
:1028A000010138C1EAFF37C1E9FF01C0EFFF036A48
:1028B00036516F0FE96E000E0320EA6EEFCF37F14D
:1028C000036A36518F0FE96E000E0320EA6EEF5057
:1028D000375D18E2036A36518F0F016E000E032236
:1028E00003C038F1036A36516F0FE96E000E032002
:1028F000EA6EEFCF39F138C1EAFF01C0E9FF39C113
:10290000EFFF2BD0036A36516F0FE96E000E0320E4
:10291000EA6EEFCF37F1036A3651970FE96E000E7A
:102920000320EA6EEF50375D18E017E3036A365173
:10293000970F016E000E032203C038F1036A36516F
:102940006F0FE96E000E0320EA6EEFCF39F138C148
:10295000EAFF01C0E9FF39C1EFFF36C13EF10001D6
:1029600008EC05F01ED0C2B41CD0CE50CFCF03F07F
:102970000101376F03C038F10001C3510101375D18
:10298000346F0001C45101013859356F35510008C9
:1029900007E2FF0A03E13451D50802E22B84C28426
:1029A000000154EF16F00101365318E036510A08C1
:1029B00009E20A0E3F6F00013EEC04F00A0E01012D
:1029C000365F07D036C13FF100013EEC04F0010153
:1029D000366B0001C9EC0DF0E6D7010104000001DF
:1029E00004EF15F00101066B056B006A07BB008858
:1029F00007510018100B09E08380079B07B9078B6C
:102A0000210E366F0001CFD7010107A902D08392B2
:102A100001D0838204C13EF103C13DF100017CEC91
:102A20000DF0F1EC0AF004C144F103C143F1E1EC13
:102A300005F002C035F101C034F135C102F034C1F6
:102A400001F00232013202320132023201C0BEFF15
:102A500002320230300B006EBD50CF0B0010BD6E45
:102A60008390030E01013F6F00013EEC04F0010171
:102A700009870787030E086F07812B8CA190A08020
:102A8000000159EF16F0010134510F0B000A3EE02E
:102A90000001F551D8B4F607F52F1ED0F6531CE10E
:102AA000809834C100F0EC51016E04E0D8900032FF
:102AB000012EFCD700A005D0F0C0F8F0EFC0F7F071
:102AC00004D0F2C0F8F0F1C0F7F0F351F725F56F3C
:102AD000F451F821F66F18D0F751D8B4F807F72F52
:102AE00013D0F85311E18088EC530DE1030EEC6F25
:102AF000EEC0F6F0EDC0F5F0010EF525F76F000E13
:102B0000F621F86F01D0EC0703D001018098000195
:102B10006BEF16F0FD510F0B000A44E0F951D8B4E9
:102B2000FA07F92F1ED0FA531CE18098FDC000F07F
:102B3000FE51016E04E0D8900032012EFCD700A0B7
:102B400005D0F0C0FCF0EFC0FBF004D0F2C0FCF008
:102B5000F1C0FBF0F351FB25F96FF451FC21FA6F42
:102B600020D0FB51D8B4FC07FB2F1BD0FC5319E13C
:102B70008088FE5315E1FD51050803E1060EFD6F47
:102B800001D0FD6B030EFE6FD890EE31FA6FED3180
:102B9000F96F010EF925FB6F000EFA21FC6F01D0D1
:102BA000FE070BD0F951D8B4FA07F92F06D0FA5323
:102BB00004E18098000E016E02D0010E016E66EFF6
:102BC00016F0F86AD09E0D8EEA6AE96AC180C18269
:102BD000C184C1962B94020EF56FF66B010EF76F50
:102BE000F86BF96FFA6B020EFB6FFC6B050EFD6F55
:102BF000030EFE6F01010A6B0B6B010E0C6F0D6B68
:102C00000E6B0F6B106B116B126B136B310E2C6F05
:102C1000320E2D6F330E2E6F340E2F6F350E306F38
:102C2000316B0001A3EF0BF0100E0101346F060EA3
:102C3000356F050E366F376B386B010E3A6F2C0E01
:102C4000396F3B6B00010DEF0DF0440E0101346F45
:102C5000160E356F0F0E366F140E376F000126EF0C
:102C60000DF0440E0101346F000146EF0DF09D861A
:102C7000D082D080C00EF212030E01013F6F00011E
:102C80003EEC04F02A500F0B000A01E1809804008A
:102C9000C9EC0DF0FDD42BA207D0010107A102D091
:102CA000000102D000016ED5010107A504D000018A
:102CB00099D601010795A1A25ED0A1922BB004D0B4
:102CC0002AC034F10001DFD6000124D701B002D0C0
:102CD0002B9001D02B802BB64DD02BAA23D0C751DF
:102CE000C707000A1EE12B9A275205E12A5203E189
:102CF0002850291006E0C66B1F0EC56FC595C591FB
:102D000003D0C66B150EC56F2BA801D0C58B090E5D
:102D100001013D6FC6C03FF1C5C03EF1000172EC3C
:102D200004F028D02A500F0B000A24E00101336B75
:102D30001F0E326F32952BA801D0328B80B802D093
:102D4000329101D032810001C5510101325D05E1AE
:102D50000001C6510101335D0EE033C1C6F032C13E
:102D6000C5F0090E3D6FC6C03FF1C5C03EF1000180
:102D700072EC04F0010100018AD70300FFFFFFFF9E
:102D8000FFFFFFFFFFFFFFFFFFFFFFFFFFFFFFFF53
:102D9000FFFFFFFFFFFFFFFFFFFFFFFFFFFFFFFF43
:102DA000FFFFFFFFFFFFFFFFFFFFFFFFFFFFFFFF33
:102DB000FFFFFFFFFFFFFFFFFFFFFFFFFFFFFFFF23
:020000040030CA
:0E00000000260609000181000FC00FE00F402E
:020000040020DA
:08000000FFFFFFFFFFFFFFFF00
:0200000400F00A
:10000000AAFF0000000000FFFFFFFFFFFFFFFFFF50
:10001000FFFFFFFFFFFFFFFFFFFFFFFFFFFFFFFFF0
:10002000FFFFFFFFFFFFFFFFFFFFFFFFFFFFFFFFE0
:10003000FFFFFFFFFFFFFFFFFFFFFFFFFFFFFFFFD0
:10004000FFFFFFFFFFFFFFFFFFFFFFFFFFFFFFFFC0
:10005000FFFFFFFFFFFFFFFFFFFFFFFFFFFFFFFFB0
:10006000FFFFFFFFFFFFFFFFFFFFFFFFFFFFFFFFA0
:10007000FFFFFFFFFFFFFFFFFFFFFFFFFFFFFFFF90
:10008000FFFFFFFFFFFFFFFFFFFFFFFFFFFFFFFF80
:10009000FFFFFFFFFFFFFFFFFFFFFFFFFFFFFFFF70
:1000A000FFFFFFFFFFFFFFFFFFFFFFFFFFFFFFFF60
:1000B000FFFFFFFFFFFFFFFFFFFFFFFFFFFFFFFF50
:1000C000FFFFFFFFFFFFFFFFFFFFFFFFFFFFFFFF40
:1000D000FFFFFFFFFFFFFFFFFFFFFFFFFFFFFFFF30
:1000E000FFFFFFFFFFFFFFFFFFFFFFFFFFFFFFFF20
:1000F000FFFFFFFFFFFFFFFFFFFFFFFFFFFFFFFF10
:00000001FF
