:0301000002014EAB
:100108000000E2FBEAF2802C0000E0FBEAF0802429
:10011800E6B50202EBF62200E2B50202EBF222009B
:10012800E0B50202EBF02230F6E0A88220F5D3EA2F
:10013800C6F582228B822230F6E6A88220F5D98085
:01014800CFE7
:030161000201494F
:050149001201AB80FE75
:100164007E007F0090E678E020E01374012EFCE42A
:100174003FFD8C068D07EC4D70EA7582FF2290E6F8
:1001840078E030E2047582042290E678E030E104FD
:100194007F0080027F018F82227E207F4E1EBEFF61
:1001A400011FEE4F70F72290E00074C1F0A374FFBA
:1001B400F0A3A3E4F090E67AF090E010E0FFA3E06F
:1001C400FEA3E0FDA3E0FCBF0103EF8001E4FF70A8
:1001D4000302026890E6787480F090E67974FE5E1B
:1001E400F0C007C006C005C004120164AB82D0048D
:1001F400D005D006D007EB6011EB6002740190E0EB
:1002040001F090E6787440F0805A90E679EDF0C001
:1002140007C006C005C004120164E582D004D005FD
:10022400D006D007600E90E0017402F090E6787476
:1002340040F0803090E679ECF0C007C006C005C0FD
:1002440004120164E582D004D005D006D007600E04
:1002540090E0017403F090E6787440F0800690E634
:10026400787440F090E00074C2F090E6787480F006
:1002740090E67974FE5EF0C007C006C005C00412A3
:100284000164E582D004D005D006D007600F90E069
:10029400017401F090E6787440F002035A90E67914
:1002A400EDF0C007C006C004120164E582D004D09A
:1002B40006D007600F90E0017402F090E678744075
:1002C400F002035A90E6787480F090E679234EF0B9
:1002D400C007C004120164E582D004D007600E9008
:1002E400E0017401F090E6787440F080697E00BE0D
:1002F400070690E6787420F090E679E0C007C0061F
:10030400C004120164E582D004D006D007701774CB
:10031400042EFBE434E0FD90E679E08B828D83F0DB
:100324000EBE080040C990E6787440F090E004E006
:1003340090E002F0EF601290E004E0B504047FA5C1
:1003440080027FEE90E003EFF090E001E0FFBFFF5A
:0E0354000590E001E4F090E0007477F080FE88
:06015B00E4787FF6D8FDF8
:0D014E00758107120362E58260030201491A
:04036200758200227E
:00000001FF
