:0301000002014EAB
:100108000000E2FBEAF2802C0000E0FBEAF0802429
:10011800E6B50202EBF62200E2B50202EBF222009B
:10012800E0B50202EBF02230F6E0A88220F5D3EA2F
:10013800C6F582228B822230F6E6A88220F5D98085
:01014800CFE7
:030161000201494F
:0501490012016480FEBC
:10016400750C0090E00174C1F090E011E0FD7E0098
:100174001582E07B004206EB420590E013E0FB7C35
:10018400001582E07A004204EA42038C088B09904D
:10019400E015E0F97A001582E07F004AF50AEF499C
:1001A400F50B78007900C3E8950AE9950B501DE832
:1001B4002508FAE93509FFE82EF582E93DF583E0E3
:1001C4008A828F83F008B800DD0980DA90E0017438
:1001D400C2F07C007F007A007B00C3EA950AEB95AD
:1001E4000B5040EA2508F582EB3509F583E0F9EA7E
:1001F4002EF582EB3DF583E0F50DE9B50D0280188F
:10020400750C018C0090E005E8F08F00A3E8F0A3E2
:10021400E9F0A3E50DF0800B0ABA00010B8A048B08
:100224000780B7E50C60047FEE80027FA590E004B0
:0A023400EFF090E0017477F080FE17
:06015B00E4787FF6D8FDF8
:0D014E0075810D12023EE582600302014939
:04023E0075820022A3
:00000001FF
