:0301000002014EAB
:100108000000E2FBEAF2802C0000E0FBEAF0802429
:10011800E6B50202EBF62200E2B50202EBF222009B
:10012800E0B50202EBF02230F6E0A88220F5D3EA2F
:10013800C6F582228B822230F6E6A88220F5D98085
:01014800CFE7
:030161000201494F
:0501490012016480FEBC
:10016400750C0090E00174C1F090E011E0FD7E0098
:100174001582E07B004206EB420590E013E0FB7C35
:10018400001582E07A004204EA42038C088B09904D
:10019400E015E0F97A001582E07F004AF50AEF499C
:1001A400F50BA3A3E07028F8F9C3E8950AE9950BC9
:1001B400501DE82508FAE93509FFE82EF582E93DE6
:1001C400F583E08A828F83F008B800DD0980DA9035
:1001D400E00174C2F07C007F007A007B00C3EA95E2
:1001E4000AEB950B5040EA2508F582EB3509F583B7
:1001F400E0F9EA2EF582EB3DF583E0F50DE9B50D66
:10020400028018750C018C0090E005E8F08F00A3C3
:10021400E8F0A3E9F0A3E50DF0800B0ABA00010BA6
:100224008A048B0780B7E50C60047FEE80027FA50B
:0D02340090E004EFF090E0017477F080FEA0
:06015B00E4787FF6D8FDF8
:0D014E0075810D120241E582600302014936
:0402410075820022A0
:00000001FF
